:020000040800F2
:100000000050002021020008270200082B020008EF
:100010009D020008A1020008E9020008000000009B
:100020000000000000000000000000003103000894
:10003000350300080000000039030008890F00089C
:100040004D0300084D0300084D0300084D03000850
:100050004D0300084D030008CD070008E90700081C
:1000600005080008210800083D0800084D030008A5
:100070004D0300084D0300084D0300084D03000820
:100080004D0300084D0300084D0300084D03000810
:100090004D0300084D0300084D03000859080008EF
:1000A0004D0300084D0300084D0300084D030008F0
:1000B0004D0300084D0300084D0300084D030008E0
:1000C0004D0300084D0300084D0300084D030008D0
:1000D0004D0300084D0300084D0300084D030008C0
:1000E000910800084D0300084D03000800000000BF
:1000F0000000000000000000000000000000000000
:1001000000000000000000005FF808F100B583B0B7
:1001100000F0AAF9304B314A1360314A1360314B79
:10012000314A32498B4204D21168196004330432D7
:10013000F7E72A4B1A682E4B9A4200D0FEE7284B6D
:100140001A682C4B9A42F9D1234B2B4A13602B4A45
:1001500013602B4B02E000221A600433294A9342B9
:10016000F9D3254B1B6813B9244B1B6803B1FEE779
:1001700000F086F9694601A800F022F9224C234BD1
:10018000E41AA4100025AC4214DC214C214BE41AE3
:10019000A4100025AC4213DC0099019800F052FF36
:1001A00005461D4C1D4BE41AA410002C0EDC2846FD
:1001B00000F0E2F8154B53F8253098470135E2E797
:1001C000144B53F8253098470135E3E7013C134BB6
:1001D00053F824309847E8E7BABADECA0000002096
:1001E0008400002000000020181D00088800002066
:1001F0007856341232547698880000203402002059
:1002000088000020380200207803000878030008E6
:1002100078030008780300087803000878030008D2
:1002200008B5FFF773FF00BEFEE71EF0040F0CBF1A
:10023000EFF30880EFF309807146414A10472DE93A
:10024000F04182B004468846124B5E6B9F6B9D6AFC
:100250001B6B13F0020F03D00E4BDB6A002B0CDB81
:100260000D4800F0B5F8CDF800803B4632462946EF
:10027000204600F009F900BEFEE74BF6AB6100F046
:100280007DF90028ECD0034B4FF00042DA6202B057
:10029000BDE8F08100ED00E0B01B000800BEFEE705
:1002A0001EF0040F0CBFEFF30880EFF309807146D6
:1002B000244A10472DE9F04182B004468846084B95
:1002C0005E6B9F6B9D6A074800F082F8CDF8008056
:1002D0003B4632462946204600F0D6F800BEFEE7EF
:1002E00000ED00E0C01B00081EF0040F0CBFEFF390
:1002F0000880EFF309807146134A10472DE9F04159
:1003000082B004468846084B5E6B9F6B9D6A074827
:1003100000F05EF8CDF800803B4632462946204684
:1003200000F0B2F800BEFEE700ED00E0CC1B0008D4
:1003300000BEFEE700BEFEE700BEFEE7704700001D
:100340003F020008B5020008FD02000800BEFEE7FB
:10035000181D00080000002088000020181D00085B
:10036000000000000000000088000020380200208B
:08037000000000000000000085
:10037800FEE7000008B503460C4A12685AB10B4A5A
:100388001068033323F003030344094A934206D851
:10039800064A136008BD054A06491160EFE700F0F8
:1003A80045FF0C2303604FF0FF30F3E78C0000207B
:1003B800004C00203802002001230360014B0B6031
:1003C800704700BF040000200FB400B583B004AB31
:1003D80053F8042B01938021064800F059FF0028A8
:1003E80003DD0146034800F037F803B05DF804EB7D
:1003F80004B07047940000202DE9F04385B004460E
:100408000F4643560BB10E461EE0042528462146EA
:10041800ABBE0446384605B0BDE8F08314F9011BAD
:1004280004AA1A4402F8101C0133AB42F6D304AAFA
:100438001344002203F8102C4FF00408E946404604
:100448004946ABBE8046761B002EE3D03546102EBB
:1004580028BF10250023E8E708B5FFF7CDFF08BD42
:1004680008B500F0FDF8024A024B9A6008BD00BFCB
:100478000000000800ED00E008B500F019F908BD1B
:10048800F8B504460D4617461E462748FFF79CFF59
:1004980021682648FFF798FF61682548FFF794FF11
:1004A800A1682448FFF790FFE1682348FFF78CFF15
:1004B80021692248FFF788FF61692148FFF784FF17
:1004C800A1692048FFF780FFE1691F48FFF77CFF1B
:1004D8001E48FFF779FF29461D48FFF775FF1D4C99
:1004E800E16A1D48FFF770FF216B1C48FFF76CFF9E
:1004F800E16B1B48FFF768FF15F0800F0AD115F470
:10050800004F0CD11748FFF75FFF06991648FFF711
:100518005BFFF8BD39461548FFF756FFEFE7314650
:100528001348FFF751FFEDE7941A0008A41A0008D2
:10053800B41A0008C41A0008D41A0008E41A0008FB
:10054800F41A0008041B0008141B0008241B0008E8
:10055800301B000800ED00E0401B0008501B00089D
:10056800601B0008901B0008981B0008701B0008FF
:10057800801B000883691A888A4201D000207047CE
:100588000268033A012A03D80233836101207047C5
:100598000020704782B00023019300932C4A13680F
:1005A80043F4803313602A4B1B6803F40033009331
:1005B800019B01330193009B1BB9019BB3F5A06F0D
:1005C800F1D1234B1B6813F4003F06D0012300939D
:1005D800009B012B04D002B0704700230093F7E77B
:1005E8001C4B1A6842F010021A601A6822F00302C3
:1005F8001A601A6842F002021A60A3F580535A681A
:100608005A605A685A605A6842F480625A605A6856
:1006180022F47C125A605A6842F4E8125A601A6846
:1006280042F080721A600A4B1B6813F0007FFAD000
:10063800074B5A6822F003025A605A6842F00202D5
:100648005A60034B5B6803F00C03082BF9D1C2E72F
:10065800001002400020024008B5FFF79BFF08BDCC
:1006680008B5104B1A6842F001021A6059680E4A20
:100678000A405A601A6822F0847222F480321A60A2
:100688001A6822F480221A605A6822F4FE025A601C
:100698004FF41F029A60FFF7DFFF044B4FF0006230
:1006A8009A6008BD001002400000FFF800ED00E06D
:1006B8001F4B5B6803F00C03042B15D0082B17D0D5
:1006C8001BB11C4B1C4A1A6002E01A4B1A4A1A60EA
:1006D800174B5B68C3F30313184AD35CDAB21549A6
:1006E8000B68D3400B607047124B134A1A60EFE750
:1006F8000F4A53685268C3F38343023312F4803FAE
:100708000AD00B4A526812F4003F0BD00C4A02FB85
:1007180003F3084A1360DBE7094A02FB03F3054ABF
:100728001360D5E7044A02FB03F3024A1360CFE7DC
:10073800001002401C00002000127A000C0000206B
:1007480000093D000F280FD810B4830800F00300FB
:100758008000064C023354F8232001FA00F01043BD
:1007680044F8230010BC7047704700BF00000140E8
:10077800024AD36843F40063D36070470004014021
:1007880003490B68012202FA00F003430B6070472B
:1007980000040140034B5B6923FA00F000F00100FC
:1007A800704700BF00040140012303FA00F0014B29
:1007B8005861704700040140014B43F8201070470E
:1007C8001401002008B50020FFF7EEFF034B1B685B
:1007D80013B1024B1B68984708BD00BF14010020E5
:1007E80008B50120FFF7E0FF034B5B6813B1024B2C
:1007F8005B68984708BD00BF1401002008B50220B7
:10080800FFF7D2FF034B9B6813B1024B9B689847D5
:1008180008BD00BF1401002008B50320FFF7C4FF7E
:10082800034BDB6813B1024BDB68984708BD00BF78
:100838001401002008B50420FFF7B6FF034B1B691D
:1008480013B1024B1B69984708BD00BF1401002073
:1008580010B5052401E00134E4B2092C11D8204672
:10086800FFF798FF0028F6D02046FFF79DFF054BBD
:1008780053F82430002BEED0024B53F8243098471D
:10088800E9E710BD1401002010B50A2401E0013485
:10089800E4B20F2C11D82046FFF77CFF0028F6D0D1
:1008A8002046FFF781FF054B53F82430002BEED08C
:1008B800024B53F824309847E9E710BD1401002093
:1008C80010B401283DD018B1022873D010BC70476D
:1008D800A2F11003DBB2012B16D90F298CBF00231C
:1008E800012313EAD1031ED04F4C236801F00700FF
:1008F80080000F21814023EA01032360236802FA64
:1009080000F018432060E1E7484B186801248C4048
:1009180020EA04001860186802F001048C402043A3
:1009280018605208D9E7424C236889000F20884094
:1009380023EA00032360206802FA01F101432160E1
:10094800C4E7A2F11003DBB2012B16D90F298CBF23
:100958000023012313EAD1031ED03648046801F0AE
:1009680007039B000F21994024EA010101600168F7
:1009780002FA03F30B430360A8E72F4B186801241E
:100988008C4020EA04001860186802F001048C40CA
:10099800204318605208D9E7284C236889000F20A3
:1009A800884023EA00032360206802FA01F101432A
:1009B80021608BE7A2F11003DBB2012B14D90F29B8
:1009C8008CBF0023012313EAD1031CD11C4B1868E8
:1009D80089000F248C4020EA04001860186802FA85
:1009E80001F10143196071E7164B186801248C4026
:1009F80020EA04001860186802F001048C402043C3
:100A080018605208DBE7104C236801F007018900E1
:100A18000F20884023EA00032360206802FA01F1CE
:100A28000143216052E700BF040801400C0801405F
:100A380000080140040C01400C0C0140000C01406E
:100A4800001001400C10014004100140012813D08F
:100A580010B102281FD0704712B1012A06D0704782
:100A6800012303FA01F1134B19607047012303FABC
:100A780001F1114B196070473AB1012AEFD10123F6
:100A880003FA01F10D4B19607047012303FA01F1D4
:100A98000B4B196070473AB1012AE0D1012303FAE0
:100AA80001F1084B1960DAE7012303FA01F1064B5B
:100AB800196070471408014010080140100C0140EB
:100AC800140C0140101001401410014008B5174BD8
:100AD8001B781BB1164B00221A7008BD00F048FAAB
:100AE80013490B78DBB280B2124A22F813000B7854
:100AF800DBB232F813309BB243F2C722934209D9D2
:100B08000A460B78DBB20B4931F813309BB20B80E5
:100B180000231370064A13780133DBB213700649B9
:100B280043F6982000F00EFAD7E700BF2102002014
:100B380020020020BC010020450B000808B5194B15
:100B48001B783BB3112301E00133DBB2182B11D81A
:100B5800154A32F8132092B2B2F5FA6FF4D3A3F122
:100B68001101012202FA01F1104802780A43D2B2B7
:100B78000270E9E70E490B78DBB25A1CD2B20A7050
:100B88000A490A78D2B20B48C25400230B70054AAE
:100B9800137008BD0849094800F0D4F9014B012237
:100BA8001A70F6E754010020BC0100202102002041
:100BB8005501002058010020450B000890D0030083
:100BC80008B504220B210120FFF77AFE01210B2032
:100BD800FFF7B8FD07490B20FFF7EEFDFFF7C8FD4B
:100BE8000B20FFF7CDFD282000F026F900F072F960
:100BF80008BD00BFD50A00080D4B1B7803F0FF00A5
:100C080013B110B4002206E07047511C084C635C15
:100C1800DBB2A354CAB2074B1B78DBB29342F4D8B9
:100C2800044A1378013BDBB2137010BC704700BF55
:100C3800580100205501002008B501220021104666
:100C4800FFF704FF012211461046FFF7FFFE0122BD
:100C580005211046FFF7FAFE012206211046FFF78C
:100C6800F5FE012207211046FFF7F0FE01220821B8
:100C78001046FFF7EBFE012209211046FFF7E6FEBA
:100C880001220A211046FFF7E1FE08BD08B502223D
:100C980000210846FFF714FE022201210020FFF779
:100CA8000FFE022211460020FFF70AFE022203214E
:100CB8000020FFF705FE022204210020FFF700FEB6
:100CC800022205210020FFF7FBFD02220621002059
:100CD800FFF7F6FD022207210020FFF7F1FD0222AF
:100CE80000210120FFF7ECFD022201210846FFF751
:100CF800E7FD022205210120FFF7E2FD022206217D
:100D08000120FFF7DDFD022207210120FFF7D8FDB2
:100D1800022208210120FFF7D3FD02220921012028
:100D2800FFF7CEFD02220A210120FFF7C9FDFFF7D8
:100D380083FF08BD10B5044600F0010200210846F3
:100D4800FFF784FEC4F3400201210020FFF77EFE76
:100D5800C4F3800202210020FFF778FEC4F3C0022A
:100D680003210020FFF772FEC4F3001204210020C3
:100D7800FFF76CFEC4F3401205210020FFF766FE62
:100D8800C4F3801206210020FFF760FEE209072164
:100D98000020FFF75BFE10BD10B50C46405CFFF766
:100DA800C9FF072C0AD8DFE804F00410161C222813
:100DB8002E34002211460120FFF748FE4FF4FA6056
:100DC80000F08EF8FFF738FF10BD00220121084619
:100DD800FFF73CFEF2E7002205210120FFF736FE6F
:100DE800ECE7002206210120FFF730FEE6E70022AB
:100DF80007210120FFF72AFEE0E700220821012051
:100E0800FFF724FEDAE7002209210120FFF71EFE82
:100E1800D4E700220A210120FFF718FECEE738B5F3
:100E28000546002105E04C1CE4B22846FFF7B4FF54
:100E380021460729F7D938BD1F2809D93B2806D8E4
:100E480000F01F00012303FA00F0044B18607047FC
:100E5800012303FA00F0024B1860704704E100E038
:100E680000E100E0054B064A1A60044B1B6813F4C6
:100E7800003FFAD0034B01221A607047001002406D
:100E880080000100041002401F291CD801280BD043
:100E980010B1022810D070470B480368012202FAEB
:100EA80001F119430160704708480368012202FAFA
:100EB80001F119430160704705480368012202FAED
:100EC80001F1194301607047141002401C100240E0
:100ED80018100240014B00221A60704710E000E031
:100EE8000A4B00229A6020F07F4058601A6842F04E
:100EF80001021A60054B1B6813F4803FFAD0034ABD
:100F0800136823F001031360704700BF10E000E08E
:100F1800094B1960094B01221A70094B1A6822F013
:100F280001021A6000229A6020F07F4058601A6817
:100F380042F003021A6070472402002022020020B7
:100F480010E000E008B5FFF7E3FF024B00221A703B
:100F580008BD00BF22020020044B1A6822F00302D9
:100F68001A6000225A609A60704700BF10E000E0E3
:100F7800024B58689B68C01A704700BF10E000E039
:100F880000B583B0094B1B68DBB28DF80730084BFE
:100F98001B7843B1074B1B6813B1064B1B68984776
:100FA80003B05DF804FBFFF7D7FFF3E710E000E0BC
:100FB800220200202402002038B500250AE0084853
:100FC80000EBC500FFF72BFF0134E4B2052CF6D97E
:100FD8000135EDB2092D01D80024F7E738BD00BF6F
:100FE800DC1B000838B500250AE0084800EBC500FE
:100FF800FFF715FF0134E4B2052CF6D90135EDB23F
:101008000A2D01D80024F7E738BD00BF2C1C0008C2
:1010180038B500250AE0084800EBC500FFF7FFFED9
:101028000134E4B2052CF6D90135EDB20B2D01D807
:101038000024F7E738BD00BF841C000808B5FFF797
:1010480011FF02210846FFF71FFF03210220FFF7C7
:101058001BFF00210220FFF717FFFFF717FEFFF71E
:10106800AFFD00E000BFFFF7C7FD5A28FBD801A37A
:1010780053F820F06D1000086F1000086F1000087A
:101088006F1000086F1000086F1000086F1000083C
:101098000B1200082B120008131200086F1000082A
:1010A8006F1000086F1000081B1200086F1000086E
:1010B8006F1000086F1000086F1000086F1000080C
:1010C8006F1000086F1000080F12000817120008B0
:1010D8006F1000081F120008E91100086F100008BF
:1010E8006F1000082F1200086F1000086F1000081A
:1010F8006F1000086F1000086F1000086F100008CC
:101108006F1000086F1000086F1000086F100008BB
:101118006F1000086F1000086F1000086F100008AB
:101128006F1000086F1000086F1000086F1000089B
:101138006F1000086F1000086F1000086F1000088B
:101148006F1000086F1000086F1000086F1000087B
:101158006F1000086F1000086F1000086F1000086B
:101168006F1000086F1000086F1000086F1000085B
:101178006F100008031200086F1000086F100008B5
:1011880007120008FF110008ED110008F31100080C
:10119800F91100086F1000086F1000086F100008A0
:1011A8006F1000086F1000086F1000086F1000081B
:1011B8006F1000086F1000086F1000082312000855
:1011C8006F1000086F1000086F1000086F100008FB
:1011D8006F1000086F1000086F1000082712000831
:1011E80000BF40E7FFF7E8FE3DE7FFF7FBFE3AE701
:1011F800FFF70EFF37E700BF35E700BF33E700BF53
:1012080031E700BF2FE700BF2DE700BF2BE700BF86
:1012180029E700BF27E700BF25E700BF23E700BF96
:1012280021E700BF1FE700BF1DE700BF014B18689B
:10123800704700BF2000002030B5141E05469BB043
:10124800184605DA8B234FF0FF302B601BB030BDFA
:101258004FF40273ADF80C300CBF234604F1FF3392
:10126800029305934FF6FF7300910491ADF80E3089
:1012780002461E9B6946284600F072F8431CBCBF14
:101288008B232B60002CE1D00022009B1A70DDE735
:1012980007B5009313460A46014603480068FFF75E
:1012A800CBFF03B05DF804FB200000202DE9F047D8
:1012B8008E6882469E420C469046994637D88A895F
:1012C80012F4906F31D00223256809696F1A656995
:1012D80005EB450595FBF3F509F101033B449D42F8
:1012E80038BF1D46530530D5294600F035FB064664
:1012F80050B90C234FF0FF30CAF80030A38943F0EF
:101308004003A381BDE8F0873A46216900F0B4FAAA
:10131800A38923F4906343F08003A38126613E44AC
:1013280026604E466561ED1BA5604E4500D94E46C8
:1013380032464146206800F0AAFAA36800209B1BA9
:10134800A36023681E442660DCE72A4600F05EFBA3
:1013580006460028E2D12169504600F0B1FAC8E7F4
:101368002DE9F04F9DB003938B8980461D060C46EE
:1013780016460FD50B696BB9402100F0EDFA2060D5
:10138800206128B90C23C8F800304FF0FF30C7E0BF
:10139800402363610023099320238DF829303023EB
:1013A8004FF0010B8DF82A3037463D4615F8013BC2
:1013B8000BB1252B3ED1B7EB060A0BD0534632466C
:1013C80021464046FFF772FF013000F0A480099BD8
:1013D800534409933B78002B00F09D8000234FF085
:1013E800FF32CDE90523049307938DF853301A9300
:1013F8002F46052217F8011B4F4800F02FFA049BCF
:10140800D0B9D90644BF20228DF853201A0744BF0B
:101418002B228DF853202A782A2A15D02F4600200F
:101428000A25079A394611F8013B303B092B4DD95B
:10143800B8B10FE02F46B8E73F4A3D46801A0BFA8D
:1014480000F018430490D3E7039A111D1268039122
:10145800002A01DB079204E0524243F0020307929C
:1014680004933B782E2B0CD17B782A2B33D1039B0A
:1014780002371A1D1B680392002BB8BF4FF0FF33C9
:1014880005932E4D03223978284600F0E7F938B144
:101498004023401B03FA00F0049B013703430493E5
:1014A8003978062226487E1C8DF8281000F0D6F9D7
:1014B800002838D0234B13BB039B073323F00703C3
:1014C80008330393099B4B4409936DE705FB0232EC
:1014D80001200F46A6E700230A2519460137059380
:1014E800384610F8012B303A092A03D9002BC8D006
:1014F8000591C6E705FB012101230746F0E703AB89
:1015080000932246104B04A94046AFF30080B0F187
:10151800FF3F8146D6D1A3895B063FF536AF0998D0
:101528001DB0BDE8F08F03AB00932246064B04A91B
:10153800404600F081F8EAE7E41C0008EA1C0008CD
:10154800EE1C000800000000B51200082DE9F04765
:1015580091461F468A680B6906469342B8BF1346F0
:10156800C9F8003091F843200C46DDF8208012B10C
:101578000133C9F800302368990642BFD9F8003012
:101588000233C9F80030256815F0060507D104F1C3
:10159800190AE368D9F800209B1AAB4229DC94F8B1
:1015A80043302268003318BF012392062ED404F179
:1015B800430239463046C047013021D02368E568E8
:1015C80003F00603042B18BF0025D9F800204FF0BC
:1015D800000908BFAD1AA368226908BF25EAE575A6
:1015E8009342C4BF9B1AED181A344D451AD10020F6
:1015F80008E00123524639463046C047013003D13E
:101608004FF0FF30BDE8F0870135C2E73020E11820
:1016180081F843005A1C94F845102244023382F89A
:101628004310C4E70123224639463046C0470130FB
:10163800E6D009F10109D8E72DE9F04301F1430C9F
:101648000C46097E85B06E291746064698460C9AC0
:1016580000F0B38022D8632936D00AD8002900F0D8
:10166800B980582900F0838004F1420584F84210BB
:1016780032E0642901D06929F6D12068136805068B
:1016880003F104012AD51B681160002B03DA2D220F
:101698005B4284F843206F480A2239E0732900F03E
:1016A8009D8008D86F2920D07029DDD1236843F0A8
:1016B8002003236003E0752917D07829D4D1782333
:1016C800654884F8453055E0136804F14205191D52
:1016D8001B68116084F8423001238CE01B6810F00D
:1016E800400F116018BF1BB2CFE713682568181D9B
:1016F8001060280601D51B6802E06806FBD51B8828
:101708006F2914BF0A2208225248002184F8431086
:101718006568002DA560C0F29580216821F004015C
:101728002160002B3DD1002D40F08E806546082AAF
:101738000BD12368DB0708D5236962689A42DEBFAC
:10174800302305F8013C05F1FF35ACEB05032361B7
:10175800CDF800803B4603AA21463046FFF7F6FE47
:1017680001304DD14FF0FF3005B0BDE8F083394866
:1017780084F84510136821681D1D1B6815600A064A
:101788000BD5CA0744BF41F0200121601BB922686C
:1017980022F0200222601022B7E74D0648BF9BB214
:1017A800EFE76546B3FBF2F102FB1133C35C05F8C2
:1017B800013D0B460029F5D1B9E713682568181DC6
:1017C8006169106028061B6801D5196002E06A0685
:1017D800FBD51980002365462361B9E71368191DF5
:1017E80011601D6862680021284600F037F808B1CA
:1017F800401B606063682361002384F84330A7E7D7
:1018080023692A4639463046C0470130AAD02368A2
:101818009B0713D4E068039B9842B8BF1846A3E718
:1018280001234A4639463046C04701309AD001352F
:10183800E368039A9B1AAB42F2DCEBE7002504F15C
:101848001909F5E7002BACD1037804F1420584F8B7
:1018580042306CE7F51C0008061D000810B5C9B237
:1018680002449042034601D1002303E01C78013072
:101878008C42F6D1184610BD10B5431E0A44914259
:1018880000D110BD11F8014B03F8014FF7E788426A
:1018980010B501EB020307D8421E99420AD011F88D
:1018A800014B02F8014FF8E78342F5D98118D21AA3
:1018B800D34200D110BD13F8014D01F8014DF7E7EF
:1018C80038B50546002943D051F8043C0C1F002BBD
:1018D800B8BFE41800F0D0F81E4A1368104633B9B0
:1018E800636014602846BDE8384000F0C6B8A342DB
:1018F8000BD921686218934201BF1A685B685218B5
:10190800226063600460EDE713465A680AB1A24298
:10191800FAD919685818A0420BD120680144581800
:1019280082421960DED110685268014419605A6019
:10193800D8E702D90C232B60D4E7206821188A4203
:1019480001BF116852680918216062605C60C9E7CC
:1019580038BD00BF2802002070B5CD1C25F0030556
:1019680008350C2D38BF0C25002D064601DBA94291
:1019780003D90C233360002070BD00F07DF8214AA4
:101988001468214691B9204C23681BB9304600F0F1
:1019980063F820602946304600F05EF8431C24D1E5
:1019A8000C233046336000F068F8E4E70B685B1BF3
:1019B80018D40B2B0FD90B60CC18CD50304600F043
:1019C8005CF804F10B00231D20F00700C31AD3D0E4
:1019D8005A42E250D0E74B688C4216BF63601360EE
:1019E8000C46EBE70C464968CCE7C41C24F003041A
:1019F800A04205D0211A304600F02EF80130CFD091
:101A08002560DBE7280200202C020020F8B50746F5
:101A180014460E4621B9BDE8F8401146FFF79CBFB1
:101A280022B9FFF74DFF25462846F8BD00F026F8F5
:101A3800A0420FD221463846FFF78EFF0546002800
:101A4800F2D031462246FFF717FF31463846FFF7F6
:101A580037FFE9E73546E7E738B50023054C054683
:101A680008462360FEF786FC431C02D1236803B1B5
:101A78002B6038BD300200207047704751F8043C95
:101A8800181F002BBCBF0B58C018704753746163F4
:101A98006B206672616D653A0A00000020523020A2
:101AA8003D2020253038580A0000000020523120FF
:101AB8003D2020253038580A0000000020523220EE
:101AC8003D2020253038580A0000000020523320DD
:101AD8003D2020253038580A0000000020523132BD
:101AE800203D20253038580A00000000204C5220A4
:101AF8003D2020253038580A00000000205043209F
:101B08003D2020253038580A00000000205053524C
:101B1800203D20253038580A000000004653522F37
:101B28004641523A0A0000002043465352203D20C5
:101B380020253038580A00002048465352203D20BE
:101B480020253038580A00002044465352203D20B2
:101B580020253038580A00002041465352203D20A5
:101B680020253038580A0000204D4D464152203D6E
:101B780020253038580A00002042464152203D2096
:101B880020253038580A00004D6973630A000000A8
:101B9800204C522F4558435F52455455524E3D20D4
:101BA800253038580A0000005B4861726446617548
:101BB8006C745D0A000000005B4275734661756CC9
:101BC800745D0A005B55736167654661756C745D89
:101BD8000A000000006C1E6C00000000006C1E6C07
:101BE80000000000006C1E6C000000000000007E79
:101BF800000000000010681E285000000000006C63
:101C08001E6C0000000042241E2442000000006CEC
:101C18001E6C0000000042241E2442000000006CDC
:101C28001E6C0000006C1E6C00400000006C1E6CF6
:101C380000400000006C1E6C0040000008641E2478
:101C48004820000008641E141400080008641E14CC
:101C58000A00000408641E140A00000008641E1428
:101C680014000000006C1E6C00000000006C1E6C6C
:101C780000000000006C1E6C00000000006C1E6C70
:101C880000000000006C1E6C00000000006C1E24A8
:101C9800420000000042241E64080000006C1E245C
:101CA800420000000042241E64080000006C1E244C
:101CB800420000000042241E64080000006C1E243C
:101CC80042000000006C1E6C00000000006C1E6CDE
:101CD80000000000006C1E6C00000000232D302B5B
:101CE8002000686C4C006566674546470030313215
:101CF800333435363738394142434445460030316C
:0F1D0800323334353637383961626364656600CB
:101D180078563412900000200000000000000000F7
:101D280000000000010203040607080900A24A0493
:101D38002400002000000000000000000000000057
:101D4800000000000000000000000000000000008B
:101D5800000000000000000000000000000000007B
:101D6800000000000000000000000000000000006B
:101D7800000000000000000000000000000000005B
:101D8800000000000000000000000000000000004B
:081D98000000000032547698AF
:040000050800010DE1
:00000001FF
